{
  "contractName": "CourseMarketplace",
  "abi": [
    {
      "inputs": [],
      "stateMutability": "nonpayable",
      "type": "constructor"
    },
    {
      "inputs": [],
      "name": "CourseHasOwner",
      "type": "error"
    },
    {
      "inputs": [],
      "name": "CourseIsNotCreated",
      "type": "error"
    },
    {
      "inputs": [],
      "name": "InvalidState",
      "type": "error"
    },
    {
      "inputs": [],
      "name": "OnlyOwner",
      "type": "error"
    },
    {
      "inputs": [],
      "name": "SenderIsNotCourseOwner",
      "type": "error"
    },
    {
      "inputs": [],
      "name": "isStopped",
      "outputs": [
        {
          "internalType": "bool",
          "name": "",
          "type": "bool"
        }
      ],
      "stateMutability": "view",
      "type": "function",
      "constant": true
    },
    {
      "inputs": [
        {
          "internalType": "uint256",
          "name": "",
          "type": "uint256"
        }
      ],
      "name": "ownedCourseHash",
      "outputs": [
        {
          "internalType": "bytes32",
          "name": "",
          "type": "bytes32"
        }
      ],
      "stateMutability": "view",
      "type": "function",
      "constant": true
    },
    {
      "inputs": [
        {
          "internalType": "bytes32",
          "name": "",
          "type": "bytes32"
        }
      ],
      "name": "ownedCourses",
      "outputs": [
        {
          "internalType": "uint256",
          "name": "id",
          "type": "uint256"
        },
        {
          "internalType": "uint256",
          "name": "price",
          "type": "uint256"
        },
        {
          "internalType": "bytes32",
          "name": "proof",
          "type": "bytes32"
        },
        {
          "internalType": "address",
          "name": "owner",
          "type": "address"
        },
        {
          "internalType": "enum CourseMarketplace.State",
          "name": "state",
          "type": "uint8"
        }
      ],
      "stateMutability": "view",
      "type": "function",
      "constant": true
    },
    {
      "stateMutability": "payable",
      "type": "receive",
      "payable": true
    },
    {
      "inputs": [
        {
          "internalType": "uint256",
          "name": "amount",
          "type": "uint256"
        }
      ],
      "name": "withdraw",
      "outputs": [],
      "stateMutability": "nonpayable",
      "type": "function"
    },
    {
      "inputs": [],
      "name": "emergencyWithdraw",
      "outputs": [],
      "stateMutability": "nonpayable",
      "type": "function"
    },
    {
      "inputs": [],
      "name": "selfDestruct",
      "outputs": [],
      "stateMutability": "nonpayable",
      "type": "function"
    },
    {
      "inputs": [],
      "name": "stopContract",
      "outputs": [],
      "stateMutability": "nonpayable",
      "type": "function"
    },
    {
      "inputs": [],
      "name": "resumeContract",
      "outputs": [],
      "stateMutability": "nonpayable",
      "type": "function"
    },
    {
      "inputs": [
        {
          "internalType": "bytes16",
          "name": "courseId",
          "type": "bytes16"
        },
        {
          "internalType": "bytes32",
          "name": "proof",
          "type": "bytes32"
        }
      ],
      "name": "purchaseCourse",
      "outputs": [],
      "stateMutability": "payable",
      "type": "function",
      "payable": true
    },
    {
      "inputs": [
        {
          "internalType": "bytes32",
          "name": "courseHash",
          "type": "bytes32"
        }
      ],
      "name": "repurchaseCourse",
      "outputs": [],
      "stateMutability": "payable",
      "type": "function",
      "payable": true
    },
    {
      "inputs": [
        {
          "internalType": "bytes32",
          "name": "courseHash",
          "type": "bytes32"
        }
      ],
      "name": "activateCourse",
      "outputs": [],
      "stateMutability": "nonpayable",
      "type": "function"
    },
    {
      "inputs": [
        {
          "internalType": "bytes32",
          "name": "courseHash",
          "type": "bytes32"
        }
      ],
      "name": "deactivateCourse",
      "outputs": [],
      "stateMutability": "nonpayable",
      "type": "function"
    },
    {
      "inputs": [
        {
          "internalType": "address",
          "name": "newOwner",
          "type": "address"
        }
      ],
      "name": "transferOwnership",
      "outputs": [],
      "stateMutability": "nonpayable",
      "type": "function"
    },
    {
      "inputs": [],
      "name": "getCourseCount",
      "outputs": [
        {
          "internalType": "uint256",
          "name": "",
          "type": "uint256"
        }
      ],
      "stateMutability": "view",
      "type": "function",
      "constant": true
    },
    {
      "inputs": [
        {
          "internalType": "uint256",
          "name": "index",
          "type": "uint256"
        }
      ],
      "name": "getCourseHashAtIndex",
      "outputs": [
        {
          "internalType": "bytes32",
          "name": "",
          "type": "bytes32"
        }
      ],
      "stateMutability": "view",
      "type": "function",
      "constant": true
    },
    {
      "inputs": [
        {
          "internalType": "bytes32",
          "name": "courseHash",
          "type": "bytes32"
        }
      ],
      "name": "getCourseByHash",
      "outputs": [
        {
          "components": [
            {
              "internalType": "uint256",
              "name": "id",
              "type": "uint256"
            },
            {
              "internalType": "uint256",
              "name": "price",
              "type": "uint256"
            },
            {
              "internalType": "bytes32",
              "name": "proof",
              "type": "bytes32"
            },
            {
              "internalType": "address",
              "name": "owner",
              "type": "address"
            },
            {
              "internalType": "enum CourseMarketplace.State",
              "name": "state",
              "type": "uint8"
            }
          ],
          "internalType": "struct CourseMarketplace.Course",
          "name": "",
          "type": "tuple"
        }
      ],
      "stateMutability": "view",
      "type": "function",
      "constant": true
    },
    {
      "inputs": [],
      "name": "getContractOwner",
      "outputs": [
        {
          "internalType": "address",
          "name": "",
          "type": "address"
        }
      ],
      "stateMutability": "view",
      "type": "function",
      "constant": true
    }
  ],
  "bytecode": "0x608060405260008060006101000a81548160ff02191690831515021790555034801561002a57600080fd5b5061003a3361003f60201b60201c565b610083565b80600460006101000a81548173ffffffffffffffffffffffffffffffffffffffff021916908373ffffffffffffffffffffffffffffffffffffffff16021790555050565b611b48806100926000396000f3fe6080604052600436106101025760003560e01c8063935d7e6d11610095578063c4bc5da511610064578063c4bc5da51461030f578063d76821cb14610326578063db2e21bc14610342578063dd040c4b14610359578063f2fde38b1461039657610109565b8063935d7e6d1461026357806396cfda061461028c5780639cb8a26a146102b7578063c32f7c5f146102ce57610109565b8063442890d5116100d1578063442890d5146101a25780636136e1eb146101cd57806362e4e6ac146101e95780636d11290b1461022657610109565b806312253a6c1461010e5780632e1a7d4d14610125578063392625721461014e5780633f683b6a1461017757610109565b3661010957005b600080fd5b34801561011a57600080fd5b506101236103bf565b005b34801561013157600080fd5b5061014c600480360381019061014791906115a2565b610447565b005b34801561015a57600080fd5b5061017560048036038101906101709190611579565b610585565b005b34801561018357600080fd5b5061018c610771565b60405161019991906117ad565b60405180910390f35b3480156101ae57600080fd5b506101b7610782565b6040516101c49190611792565b60405180910390f35b6101e760048036038101906101e29190611579565b6107ac565b005b3480156101f557600080fd5b50610210600480360381019061020b9190611579565b610973565b60405161021d9190611823565b60405180910390f35b34801561023257600080fd5b5061024d600480360381019061024891906115a2565b610a9b565b60405161025a91906117c8565b60405180910390f35b34801561026f57600080fd5b5061028a60048036038101906102859190611579565b610ab8565b005b34801561029857600080fd5b506102a1610d83565b6040516102ae919061183e565b60405180910390f35b3480156102c357600080fd5b506102cc610d8d565b005b3480156102da57600080fd5b506102f560048036038101906102f09190611579565b610e4b565b604051610306959493929190611859565b60405180910390f35b34801561031b57600080fd5b50610324610eae565b005b610340600480360381019061033b919061153d565b610f36565b005b34801561034e57600080fd5b5061035761113b565b005b34801561036557600080fd5b50610380600480360381019061037b91906115a2565b61128f565b60405161038d91906117c8565b60405180910390f35b3480156103a257600080fd5b506103bd60048036038101906103b89190611514565b6112a7565b005b6103c7610782565b73ffffffffffffffffffffffffffffffffffffffff163373ffffffffffffffffffffffffffffffffffffffff161461042b576040517f5fc483c500000000000000000000000000000000000000000000000000000000815260040160405180910390fd5b60016000806101000a81548160ff021916908315150217905550565b61044f610782565b73ffffffffffffffffffffffffffffffffffffffff163373ffffffffffffffffffffffffffffffffffffffff16146104b3576040517f5fc483c500000000000000000000000000000000000000000000000000000000815260040160405180910390fd5b6000600460009054906101000a900473ffffffffffffffffffffffffffffffffffffffff1673ffffffffffffffffffffffffffffffffffffffff16826040516104fb9061177d565b60006040518083038185875af1925050503d8060008114610538576040519150601f19603f3d011682016040523d82523d6000602084013e61053d565b606091505b5050905080610581576040517f08c379a000000000000000000000000000000000000000000000000000000000815260040161057890611803565b60405180910390fd5b5050565b60008054906101000a900460ff161561059d57600080fd5b6105a5610782565b73ffffffffffffffffffffffffffffffffffffffff163373ffffffffffffffffffffffffffffffffffffffff1614610609576040517f5fc483c500000000000000000000000000000000000000000000000000000000815260040160405180910390fd5b6106128161131f565b610648576040517f4db0c48300000000000000000000000000000000000000000000000000000000815260040160405180910390fd5b600060016000838152602001908152602001600020905060006002811115610699577f4e487b7100000000000000000000000000000000000000000000000000000000600052602160045260246000fd5b8160030160149054906101000a900460ff1660028111156106e3577f4e487b7100000000000000000000000000000000000000000000000000000000600052602160045260246000fd5b1461071a576040517fbaf3f0f700000000000000000000000000000000000000000000000000000000815260040160405180910390fd5b60018160030160146101000a81548160ff02191690836002811115610768577f4e487b7100000000000000000000000000000000000000000000000000000000600052602160045260246000fd5b02179055505050565b60008054906101000a900460ff1681565b6000600460009054906101000a900473ffffffffffffffffffffffffffffffffffffffff16905090565b60008054906101000a900460ff16156107c457600080fd5b6107cd8161131f565b610803576040517f4db0c48300000000000000000000000000000000000000000000000000000000815260040160405180910390fd5b61080c8161138e565b610842576040517fcce31cc400000000000000000000000000000000000000000000000000000000815260040160405180910390fd5b6000600160008381526020019081526020016000209050600280811115610892577f4e487b7100000000000000000000000000000000000000000000000000000000600052602160045260246000fd5b8160030160149054906101000a900460ff1660028111156108dc577f4e487b7100000000000000000000000000000000000000000000000000000000600052602160045260246000fd5b14610913576040517fbaf3f0f700000000000000000000000000000000000000000000000000000000815260040160405180910390fd5b60008160030160146101000a81548160ff02191690836002811115610961577f4e487b7100000000000000000000000000000000000000000000000000000000600052602160045260246000fd5b02179055503481600101819055505050565b61097b611440565b600160008381526020019081526020016000206040518060a00160405290816000820154815260200160018201548152602001600282015481526020016003820160009054906101000a900473ffffffffffffffffffffffffffffffffffffffff1673ffffffffffffffffffffffffffffffffffffffff1673ffffffffffffffffffffffffffffffffffffffff1681526020016003820160149054906101000a900460ff166002811115610a58577f4e487b7100000000000000000000000000000000000000000000000000000000600052602160045260246000fd5b6002811115610a90577f4e487b7100000000000000000000000000000000000000000000000000000000600052602160045260246000fd5b815250509050919050565b600060026000838152602001908152602001600020549050919050565b60008054906101000a900460ff1615610ad057600080fd5b610ad8610782565b73ffffffffffffffffffffffffffffffffffffffff163373ffffffffffffffffffffffffffffffffffffffff1614610b3c576040517f5fc483c500000000000000000000000000000000000000000000000000000000815260040160405180910390fd5b610b458161131f565b610b7b576040517f4db0c48300000000000000000000000000000000000000000000000000000000815260040160405180910390fd5b600060016000838152602001908152602001600020905060006002811115610bcc577f4e487b7100000000000000000000000000000000000000000000000000000000600052602160045260246000fd5b8160030160149054906101000a900460ff166002811115610c16577f4e487b7100000000000000000000000000000000000000000000000000000000600052602160045260246000fd5b14610c4d576040517fbaf3f0f700000000000000000000000000000000000000000000000000000000815260040160405180910390fd5b60008160030160009054906101000a900473ffffffffffffffffffffffffffffffffffffffff1673ffffffffffffffffffffffffffffffffffffffff168260010154604051610c9b9061177d565b60006040518083038185875af1925050503d8060008114610cd8576040519150601f19603f3d011682016040523d82523d6000602084013e610cdd565b606091505b5050905080610d21576040517f08c379a0000000000000000000000000000000000000000000000000000000008152600401610d18906117e3565b60405180910390fd5b60028260030160146101000a81548160ff02191690836002811115610d6f577f4e487b7100000000000000000000000000000000000000000000000000000000600052602160045260246000fd5b021790555060008260010181905550505050565b6000600354905090565b60008054906101000a900460ff16610da457600080fd5b610dac610782565b73ffffffffffffffffffffffffffffffffffffffff163373ffffffffffffffffffffffffffffffffffffffff1614610e10576040517f5fc483c500000000000000000000000000000000000000000000000000000000815260040160405180910390fd5b600460009054906101000a900473ffffffffffffffffffffffffffffffffffffffff1673ffffffffffffffffffffffffffffffffffffffff16ff5b60016020528060005260406000206000915090508060000154908060010154908060020154908060030160009054906101000a900473ffffffffffffffffffffffffffffffffffffffff16908060030160149054906101000a900460ff16905085565b610eb6610782565b73ffffffffffffffffffffffffffffffffffffffff163373ffffffffffffffffffffffffffffffffffffffff1614610f1a576040517f5fc483c500000000000000000000000000000000000000000000000000000000815260040160405180910390fd5b60008060006101000a81548160ff021916908315150217905550565b60008054906101000a900460ff1615610f4e57600080fd5b60008233604051602001610f63929190611751565b604051602081830303815290604052805190602001209050610f848161138e565b15610fbb576040517fb0fc2d9700000000000000000000000000000000000000000000000000000000815260040160405180910390fd5b600060036000815480929190610fd09061196b565b9190505590508160026000838152602001908152602001600020819055506040518060a001604052808281526020013481526020018481526020013373ffffffffffffffffffffffffffffffffffffffff16815260200160006002811115611061577f4e487b7100000000000000000000000000000000000000000000000000000000600052602160045260246000fd5b8152506001600084815260200190815260200160002060008201518160000155602082015181600101556040820151816002015560608201518160030160006101000a81548173ffffffffffffffffffffffffffffffffffffffff021916908373ffffffffffffffffffffffffffffffffffffffff16021790555060808201518160030160146101000a81548160ff0219169083600281111561112d577f4e487b7100000000000000000000000000000000000000000000000000000000600052602160045260246000fd5b021790555090505050505050565b60008054906101000a900460ff1661115257600080fd5b61115a610782565b73ffffffffffffffffffffffffffffffffffffffff163373ffffffffffffffffffffffffffffffffffffffff16146111be576040517f5fc483c500000000000000000000000000000000000000000000000000000000815260040160405180910390fd5b6000600460009054906101000a900473ffffffffffffffffffffffffffffffffffffffff1673ffffffffffffffffffffffffffffffffffffffff16476040516112069061177d565b60006040518083038185875af1925050503d8060008114611243576040519150601f19603f3d011682016040523d82523d6000602084013e611248565b606091505b505090508061128c576040517f08c379a000000000000000000000000000000000000000000000000000000000815260040161128390611803565b60405180910390fd5b50565b60026020528060005260406000206000915090505481565b6112af610782565b73ffffffffffffffffffffffffffffffffffffffff163373ffffffffffffffffffffffffffffffffffffffff1614611313576040517f5fc483c500000000000000000000000000000000000000000000000000000000815260040160405180910390fd5b61131c816113fc565b50565b60008073ffffffffffffffffffffffffffffffffffffffff166001600084815260200190815260200160002060030160009054906101000a900473ffffffffffffffffffffffffffffffffffffffff1673ffffffffffffffffffffffffffffffffffffffff1614159050919050565b60003373ffffffffffffffffffffffffffffffffffffffff166001600084815260200190815260200160002060030160009054906101000a900473ffffffffffffffffffffffffffffffffffffffff1673ffffffffffffffffffffffffffffffffffffffff16149050919050565b80600460006101000a81548173ffffffffffffffffffffffffffffffffffffffff021916908373ffffffffffffffffffffffffffffffffffffffff16021790555050565b6040518060a00160405280600081526020016000815260200160008019168152602001600073ffffffffffffffffffffffffffffffffffffffff168152602001600060028111156114ba577f4e487b7100000000000000000000000000000000000000000000000000000000600052602160045260246000fd5b81525090565b6000813590506114cf81611ab6565b92915050565b6000813590506114e481611acd565b92915050565b6000813590506114f981611ae4565b92915050565b60008135905061150e81611afb565b92915050565b60006020828403121561152657600080fd5b6000611534848285016114c0565b91505092915050565b6000806040838503121561155057600080fd5b600061155e858286016114d5565b925050602061156f858286016114ea565b9150509250929050565b60006020828403121561158b57600080fd5b6000611599848285016114ea565b91505092915050565b6000602082840312156115b457600080fd5b60006115c2848285016114ff565b91505092915050565b6115d4816118c8565b82525050565b6115e3816118c8565b82525050565b6115fa6115f5826118c8565b6119b4565b82525050565b611609816118da565b82525050565b61162061161b826118e6565b6119c6565b82525050565b61162f81611912565b82525050565b61163e81611912565b82525050565b61164d81611959565b82525050565b61165c81611959565b82525050565b600061166f600f836118b7565b915061167a82611a4d565b602082019050919050565b60006116926000836118ac565b915061169d82611a76565b600082019050919050565b60006116b56010836118b7565b91506116c082611a79565b602082019050919050565b60a0820160008201516116e16000850182611733565b5060208201516116f46020850182611733565b5060408201516117076040850182611626565b50606082015161171a60608501826115cb565b50608082015161172d6080850182611644565b50505050565b61173c8161194f565b82525050565b61174b8161194f565b82525050565b600061175d828561160f565b60108201915061176d82846115e9565b6014820191508190509392505050565b600061178882611685565b9150819050919050565b60006020820190506117a760008301846115da565b92915050565b60006020820190506117c26000830184611600565b92915050565b60006020820190506117dd6000830184611635565b92915050565b600060208201905081810360008301526117fc81611662565b9050919050565b6000602082019050818103600083015261181c816116a8565b9050919050565b600060a08201905061183860008301846116cb565b92915050565b60006020820190506118536000830184611742565b92915050565b600060a08201905061186e6000830188611742565b61187b6020830187611742565b6118886040830186611635565b61189560608301856115da565b6118a26080830184611653565b9695505050505050565b600081905092915050565b600082825260208201905092915050565b60006118d38261192f565b9050919050565b60008115159050919050565b60007fffffffffffffffffffffffffffffffff0000000000000000000000000000000082169050919050565b6000819050919050565b600081905061192a82611aa2565b919050565b600073ffffffffffffffffffffffffffffffffffffffff82169050919050565b6000819050919050565b60006119648261191c565b9050919050565b60006119768261194f565b91507fffffffffffffffffffffffffffffffffffffffffffffffffffffffffffffffff8214156119a9576119a86119e2565b5b600182019050919050565b60006119bf826119d0565b9050919050565b6000819050919050565b60006119db82611a40565b9050919050565b7f4e487b7100000000000000000000000000000000000000000000000000000000600052601160045260246000fd5b7f4e487b7100000000000000000000000000000000000000000000000000000000600052602160045260246000fd5b60008160601b9050919050565b7f5472616e73666572206661696c65640000000000000000000000000000000000600082015250565b50565b7f5472616e73666572206661696c65642e00000000000000000000000000000000600082015250565b60038110611ab357611ab2611a11565b5b50565b611abf816118c8565b8114611aca57600080fd5b50565b611ad6816118e6565b8114611ae157600080fd5b50565b611aed81611912565b8114611af857600080fd5b50565b611b048161194f565b8114611b0f57600080fd5b5056fea264697066735822122056fccdda94491ebbc4cb2026de71548e66dae7877e576a77f23f72ff96a3af0264736f6c63430008040033",
  "immutableReferences": {},
  "source": "// SPDX-License-Identifier: MIT\npragma solidity >=0.4.22 <0.9.0;\n\ncontract CourseMarketplace {\n    enum State {\n        Purchased,\n        Activated,\n        Deactivated\n    }\n\n    // ,    \n    // ,      \n    bool public isStopped = false;\n\n    // struct -     JS\n    struct Course {\n        uint256 id; // 32 \n        uint256 price; // 32 \n        bytes32 proof; // 32 \n        address owner; // 20 \n        State state; // 1 \n    }\n\n    // mapping courseHash to Course data\n    mapping(bytes32 => Course) public ownedCourses;\n\n    // mapping of courseID to courseHash\n    mapping(uint256 => bytes32) public ownedCourseHash;\n\n    //   \n    // id            \n    uint256 private totalOwnedCourses;\n\n    //   ( struct Course    :   () )\n    address payable private owner;\n\n    constructor() {\n        // owner = payable(newOwner);\n        //  ,    ,    . ,  code-style\n        setContractOwner(msg.sender);\n    }\n\n    // :      \n    //   ///     error message  \n    /// Course has alredy a Owner\n    error CourseHasOwner();\n\n    /// Only owner has an access\n    error OnlyOwner();\n\n    /// Course has invalid state!\n    error InvalidState();\n\n    /// Course is not created!\n    error CourseIsNotCreated();\n\n    /// Sender is not course owner!\n    error SenderIsNotCourseOwner();\n\n    modifier onlyOwner() {\n        if (msg.sender != getContractOwner()) {\n            //     ,    \n            revert OnlyOwner();\n        }\n        _;\n    }\n\n    modifier onlyWhenNotStopped() {\n        require(!isStopped);\n        _;\n    }\n\n    modifier onlyWhenStopped() {\n        require(isStopped);\n        _;\n    }\n\n    //        (,   -     )\n    receive() external payable {}\n\n    //        owner\n    function withdraw(uint256 amount) external onlyOwner {\n        (bool success, ) = owner.call{value: amount}(\"\");\n        require(success, \"Transfer failed.\");\n    }\n\n    //         \n    function emergencyWithdraw() external onlyWhenStopped onlyOwner {\n        (bool success, ) = owner.call{value: address(this).balance}(\"\");\n        require(success, \"Transfer failed.\");\n    }\n\n    //     \n    function selfDestruct() external onlyWhenStopped onlyOwner {\n        // selfdestruct -    ,        \n        selfdestruct(owner);\n    }\n\n    //      (  )\n    function stopContract() external onlyOwner {\n        isStopped = true;\n    }\n\n    //      (  )\n    function resumeContract() external onlyOwner {\n        isStopped = false;\n    }\n\n    function purchaseCourse(bytes16 courseId, bytes32 proof)\n        external\n        payable\n        onlyWhenNotStopped\n    {\n        //    id    \n        // ..          ,  .      :       \n        // abi.encodePacked    ,    keccak  \n        bytes32 courseHash = keccak256(abi.encodePacked(courseId, msg.sender));\n\n        // ,        \n        if (hasCourseOwnership(courseHash)) {\n            //      ,    \n            revert CourseHasOwner();\n        }\n\n        uint256 id = totalOwnedCourses++;\n\n        //   id  \n        ownedCourseHash[id] = courseHash;\n\n        //        \n        ownedCourses[courseHash] = Course({\n            id: id,\n            price: msg.value,\n            proof: proof,\n            owner: msg.sender,\n            state: State.Purchased\n        });\n    }\n\n    //       ,    Deactivated      \n    function repurchaseCourse(bytes32 courseHash)\n        external\n        payable\n        onlyWhenNotStopped\n    {\n        if (!isCourseCreated(courseHash)) {\n            revert CourseIsNotCreated();\n        }\n\n        if (!hasCourseOwnership(courseHash)) {\n            revert SenderIsNotCourseOwner();\n        }\n\n        Course storage course = ownedCourses[courseHash];\n\n        if (course.state != State.Deactivated) {\n            revert InvalidState();\n        }\n\n        course.state = State.Purchased;\n        course.price = msg.value;\n    }\n\n    //    (     )\n    //     Course storage,   course      ownedCourses\n    //    memory,          \n    function activateCourse(bytes32 courseHash)\n        external\n        onlyWhenNotStopped\n        onlyOwner\n    {\n        if (!isCourseCreated(courseHash)) {\n            revert CourseIsNotCreated();\n        }\n\n        Course storage course = ownedCourses[courseHash];\n\n        if (course.state != State.Purchased) {\n            revert InvalidState();\n        }\n\n        course.state = State.Activated;\n    }\n\n    //     ,     \n    // ,      \n    //      \n    function deactivateCourse(bytes32 courseHash)\n        external\n        onlyWhenNotStopped\n        onlyOwner\n    {\n        if (!isCourseCreated(courseHash)) {\n            revert CourseIsNotCreated();\n        }\n\n        Course storage course = ownedCourses[courseHash];\n\n        if (course.state != State.Purchased) {\n            revert InvalidState();\n        }\n\n        //    \n        //   .\n        //    -   ,    - data (      data)\n        (bool success, ) = course.owner.call{value: course.price}(\"\");\n\n        //     ,     Deactivated\n        require(success, \"Transfer failed\");\n\n        course.state = State.Deactivated;\n        course.price = 0;\n    }\n\n    //    \n    function transferOwnership(address newOwner) external onlyOwner {\n        setContractOwner(newOwner);\n    }\n\n    //     \n    function getCourseCount() external view returns (uint256) {\n        return totalOwnedCourses;\n    }\n\n    //     mapping ownedCourseHash  \n    function getCourseHashAtIndex(uint256 index)\n        external\n        view\n        returns (bytes32)\n    {\n        return ownedCourseHash[index];\n    }\n\n    //   struct Course  mapping ownedCourses   \n    function getCourseByHash(bytes32 courseHash)\n        external\n        view\n        returns (Course memory)\n    {\n        return ownedCourses[courseHash];\n    }\n\n    //     \n    function getContractOwner() public view returns (address) {\n        return owner;\n    }\n\n    //    \n    function setContractOwner(address newOwner) private {\n        owner = payable(newOwner);\n    }\n\n    //  ,       (      )\n    function isCourseCreated(bytes32 courseHash) private view returns (bool) {\n        return\n            ownedCourses[courseHash].owner !=\n            0x0000000000000000000000000000000000000000;\n    }\n\n    // ,        ?\n    function hasCourseOwnership(bytes32 courseHash)\n        private\n        view\n        returns (bool)\n    {\n        return ownedCourses[courseHash].owner == msg.sender;\n    }\n}\n\n// CoureseID = 0x00000000000000000000000000003130 (=== '10')\n// proof = 0x0000000000000000000000000000313000000000000000000000000000003130\n//\n",
  "sourcePath": "C:\\materials\\Solidity\\Study-projects\\SP-marketplace-eth\\contracts\\CourseMarketplace.sol",
  "compiler": {
    "name": "solc",
    "version": "0.8.4+commit.c7e474f2.Emscripten.clang"
  },
  "schemaVersion": "3.4.7",
  "updatedAt": "2022-07-22T08:01:35.598Z",
  "networkType": "ethereum",
  "devdoc": {
    "kind": "dev",
    "methods": {},
    "version": 1
  },
  "userdoc": {
    "errors": {
      "CourseHasOwner()": [
        {
          "notice": "Course has alredy a Owner"
        }
      ],
      "CourseIsNotCreated()": [
        {
          "notice": "Course is not created!"
        }
      ],
      "InvalidState()": [
        {
          "notice": "Course has invalid state!"
        }
      ],
      "OnlyOwner()": [
        {
          "notice": "Only owner has an access"
        }
      ],
      "SenderIsNotCourseOwner()": [
        {
          "notice": "Sender is not course owner!"
        }
      ]
    },
    "kind": "user",
    "methods": {},
    "version": 1
  }
}